S01A0000424C44435F4D6F746F725F436F6E74726F6C2E7372656345
S315000000008059FE1F39BD0000C9B4000049BD00007B
S3150000001049BD000049BD000049BD000000000000C8
S3150000002000000000000000000000000049BD0000C4
S3150000003049BD0000000000008DFF000041000100E6
S31500000040E1960000ED9400000142000081420000AC
S3150000005031410000FFFFFFFFFFFFFFFFFFFFFFFF34
S31500000060FFFFFFFFFFFFFFFFFFFFFFFFFFFFFFFF9A
S31500000070FFFFFFFFFFFFFFFFFFFFFFFFFFFFFFFF8A
S31500000080FFFFFFFFFFFFFFFFFFFFFFFFFFFFFFFF7A
S31500000090FFFFFFFFFFFFFFFFFFFFFFFFFFFFFFFF6A
S31500000400FFFFFFFFFFFDFFFFFCFFFFFFFFFFFFFFFB
S31500000410FCFFFFFFFFFFFFFFFCFFFF00FFFFFF00EA
S31500000420FCFF0F20FFFF0F20FCFF7F40FFFF7F40F8
S31500000430FCFF0D40FFFF7F40FFFFFFFFFFFFFFFFB9
S31500000440FFFFFFFFFFFFFFFFFFFFFFFFFFFFFFFFB6
S31500000450FFFFFFFFFFFFFFFFFFFFFFFFFFFFFFFFA6
S31500000460FFFFFFFFFFFFFFFFFFFFFFFFFFFFFFFF96
S31500000470FFFFFFFFFFFFFFFFFFFFFFFFFFFFFFFF86
S31500000480FFFFFFFFFFFFFFFFFFFFFFFFFFFFFFFF76
S31500000490FFFFFFFFFFFFFFFFFFFFFFFFFFFFFFFF66
S315000004A0FFFFFFFFFFFFFFFFFFFFFFFFFFFFFFFF56
S315000004B0FFFFFFFFFFFFFFFFFFFFFFFFFFFFFFFF46
S315000004C0FFFFFFFFFFFFFFFFFFFFFFFFFFFFFFFF36
S315000004D0FFFFFFFFFFFFFFFFFFFFFFFFFFFFFFFF26
S315000004E0FFFFFFFFFFFFFFFFFFFFFFFFFFFFFFFF16
S315000004F0FFFFFFFFFFFFFFFFFFFFFFFFFFFFFFFF06
S31500000500BC0CFE1F4D002020140DFE1FB6002B3024
S31500000510180DFE1FA4211410200DFE1FA621142065
S315000005201C0DFE1FA521142820000000200001003C
S315000005302F0000002F0001000C0001001100000038
S3150000054030000000300001002400000024000100FB
S3150000055024000200240003002400040024000500F7
S315000005601300000017000000210000002100010018
S315000005700700000007000100070002000700030053
S315000005800700040007000500070006000700070033
S3150000059012000000080000000B000000040000002C
S315000005A02B0000002B000A002B000B002B000C0078
S315000005B02B0001002B0002002B0003002B0004007F
S315000005C02B0005002B0006002B0007002B0008005F
S315000005D02B0009000600000006000A0006000B00BA
S315000005E006000C0006000D000600010006000200D1
S315000005F006000300060004000600050006000600CB
S3150000060006000700060008000600090015000000A5
S3150000061015000100310000002A0000001000000053
S315000006200301000003000000030001000F000000AA
S315000006300D0000002D0000002C0000002C00010021
S315000006402C0002002C0003003200000028000000ED
S31500000650180000001400000014000100140002003D
S31500000660140003001400040014000800140009001C
S3150000067034000000340001001600000016000100DE
S3150000068035000000360000002200000033000000A4
S315000006902900000010B5054C237833B9044B13B17B
S315000006A00448AFF300800123237010BD3C0CFE1FED
S315000006B0000000001C310100084B10B51BB10848B2
S315000006C00849AFF300800848036803B910BD074B1B
S315000006D0002BFBD0BDE81040184700BF000000000B
S315000006E01C310100400CFE1FA40BFE1F0000000081
S315000006F080B58EB000AF786039607B687B633B68FD
S315000007001B683B633B6B1A687B6B5A607B6B1B6891
S31500000710002B01D008232CE0786B00F073FAF86206
S31500000720FB6A002B01D0FB6A23E03B6B1B685B680E
S3150000073007F1080210461946242210F061FE0F4BFD
S315000007403B627B6B7B623B6B1B689B681B687A6BAF
S315000007505268116807F10802084611469847F86280
S31500000760FB6A002B01D0FB6A03E07B6B01221A6057
S31500000770002318463837BD4680BD00BF410D000036
S3150000078080B584B000AF78607B68FB600023BB60F7
S31500000790FB681B68002B01D107231BE0FB685B6825
S315000007A09B685B69FA685268126810469847B86099
S315000007B0BB68002B01D0BB680CE0F86800F07EFA3D
S315000007C0B860BB68002B01D0BB6803E0FB68002261
S315000007D01A60BB6818461037BD4680BD80B588B024
S315000007E000AFF860B9607A603B60FB68FB6100238C
S315000007F0BB6100237B617B683B61FB691B68002B47
S3150000080001D1072329E0FB693C33184639680DF00E
S3150000081085FEB861BB69002B01D014231DE0FB697E
S3150000082002221A60F869B9683A693B6800F05CF917
S315000008307861FB693C3318460DF09CFEB8617B6914
S31500000840002B01D07B6908E0BB69002B01D0642333
S3150000085003E0FB6901221A607B6918462037BD4612
S3150000086080BD00BF90B58BB002AFF860B9607A600A
S315000008703B60FB68BB6100237B610023FB610023B7
S315000008803B61BB691B68002B01D107235FE0BB6995
S315000008900833184639680DF041FE78617B69002BF4
S315000008A001D0142353E0BB6903221A60BB6903F12C
S315000008B0700207F110040023009310460221012262
S315000008C023460DF085FDBB695B689B689B68BA692A
S315000008D0526812681046B9687A689847F861FB69E9
S315000008E0002B26D1BB6903F1700207F110043B68A7
S315000008F0009310460221012223460DF069FD78611E
S315000009007B69002B15D07B69072B10D1BB695B680F
S315000009109B68DB69BA6952681268104602219847DB
S31500000920F861FB69002B04D11423FB6101E0642309
S31500000930FB61BB69083318460DF01CFEFB69002BF2
S3150000094001D0FB6903E0BB6901221A60FB69184606
S315000009502437BD4690BD00BF80B586B000AFF860B5
S315000009600B467A60FB72FB683B613B691B68002B98
S3150000097001D107232EE0FB7A022B19D13B690833FC
S31500000980184679680DF0CAFD78617B69002B1BD18A
S315000009903B693C33184679680DF0C0FD78617B6988
S315000009A0002B11D03B69083318460DF0E3FD0BE030
S315000009B0FB7A342202FB03F308333A6913441846E0
S315000009C079680DF0ABFD78617B69002B01D01423AB
S315000009D000E0002318461837BD4680BD80B586B0B6
S315000009E000AF78600B46FB707B68FB60FB681B689A
S315000009F0002B01D1072325E000237B6100233B6107
S31500000A00FB78002B02D0FB78022B05D1FB6808335C
S31500000A1018460DF0AFFD3861FB78012B02D0FB784C
S31500000A20022B05D1FB683C3318460DF0A3FD786117
S31500000A303B69002B05D17B69002B02D100BF002347
S31500000A4000E0642318461837BD4680BD80B483B0E5
S31500000A5000AF7860054B1A687B681A600023184659
S31500000A600C37BD465DF8047B704700BF5422010079
S31500000A7080B586B000AFF860B9607A603B6000234D
S31500000A807B6100233B611BE0FB6803F1B80207F1C1
S31500000A9010031046194600220DF006FE78617B69A8
S31500000AA0002B0DD13B681B687A68D31ABA681344C9
S31500000AB03A69D2B21A703B681B685A1E3B681A60C4
S31500000AC07B69002B03D13B681B68002BDCD17B695B
S31500000AD0002B04D07B690A2B01D0642300E000239D
S31500000AE018461837BD4680BD90B58BB002AFF8608A
S31500000AF0B9607A603B6000237B617B683B610023C1
S31500000B00BB610023FB6107F11003F868B9687A68D6
S31500000B10FFF7AEFF39E0FB6803F1940207F1140416
S31500000B203B6800931046BD21012223460DF050FC80
S31500000B30B861BB69002B17D0BB69072B10D1FB68C6
S31500000B405B689B68DB69FA68526812681046012187
S31500000B509847F861FB69002B04D11423FB6101E07F
S31500000B606423FB61FB6914E07B69184600F016F804
S31500000B70F861FB69002B01D0FB690AE007F110035D
S31500000B80F868B9687A68FFF773FF3B69002BC2D132
S31500000B90FB6918462437BD4690BD00BF80B485B0BA
S31500000BA000AF78600023FB607B68802B23D0202376
S31500000BB0BB60BA687B681340002B01D00C23FB6036
S31500000BC00823BB60BA687B681340002B01D0C8239A
S31500000BD0FB600423BB60BA687B681340002B01D01E
S31500000BE0CA23FB601023BB60BA687B681340002BE6
S31500000BF001D0C923FB60FB6818461437BD465DF873
S31500000C00047B704790B587B002AF78600023FB6025
S31500000C107B68083318462749012234230DF010FC5F
S31500000C20F860FB68002B01D064233EE07B683C3310
S31500000C3018462149012234230DF002FCF860FB68B6
S31500000C40002B01D0642330E07B68703318461949C5
S31500000C5024220DF05BFBF860FB68002B01D06423B7
S31500000C6023E07B6894331846134924220DF04EFB8B
S31500000C70F860FB68002B01D0642316E07B6803F163
S31500000C80B8027B6803F1F0043C23009338230193F8
S31500000C9010460949012223460DF088FCF860FB68DE
S31500000CA0002B01D0642300E0002318461437BD460C
S31500000CB090BD00BF742201008022010080B584B07F
S31500000CC000AF78600023FB607B68083318460DF0A0
S31500000CD00FFCF860FB68002B01D064232CE07B68D6
S31500000CE03C3318460DF004FCF860FB68002B01D07D
S31500000CF0642321E07B68703318460DF053FBF860DF
S31500000D00FB68002B01D0642316E07B6894331846F9
S31500000D100DF048FBF860FB68002B01D064230BE064
S31500000D207B68B83318460DF0A9FCF860FB68002B09
S31500000D3001D0642300E0002318461037BD4680BD6D
S31500000D4080B586B000AF78607B68DB683B613B6945
S31500000D5070337B617B689B88B3F5807F00D120E090
S31500000D607B689B88022B15D03B6994337B6180237B
S31500000D70FB607B689B881A46FB681340002B09D0F2
S31500000D803B6903F1B8027B68083310461946002216
S31500000D900DF0AAFC7B689B887869194600220DF045
S31500000DA039FB1837BD4680BD80B582B000AF78608C
S31500000DB039607B68002B01D10123FAE03B68002BE8
S31500000DC001D10123F5E03B681B6E002B01D1012305
S31500000DD0EFE03B68DB6D002B01D10123E9E0774BA7
S31500000DE01B881BB20D2B01DD0123E2E07B683A680C
S31500000DF0C3F89C217B6800221A807B680122A3F835
S31500000E00E4207B680222A3F8E6207B680422A3F88C
S31500000E10E8203B68B3F84C30002B0BD03B68B3F8A6
S31500000E204E30002B06D03B68B3F85030002B01D073
S31500000E30012300E0002303F00103DAB27B6883F8A4
S31500000E40D8207B68002283F82420786800F05CFCB8
S31500000E503B6893F84030012B0BD17B6893F8D83070
S31500000E60002B06D07B681B8843F040039AB27B6850
S31500000E701A803B685B8F1BB2514A82FB0312121128
S31500000E80DB17D31A9AB23B689A873B689B8F002B75
S31500000E9002D13B6801229A873B68DB8F002B03D186
S31500000EA03B6847F6BC72DA877B6803F18C023B68C5
S31500000EB0203310461946202210F0A2FA7B684FF420
S31500000EC0FA62DA637B6805221A643B681B6E9A68CD
S31500000ED07B68C3F8B8213B681B6E5A687B68C3F809
S31500000EE0BC213B681B6E1A687B68C3F8C0213B684F
S31500000EF01B6E9B681B683A68126E11683A68126E20
S31500000F0052680846114698473B68DB6D9A687B68CD
S31500000F10C3F8A4213B68DB6D5A687B68C3F8A82137
S31500000F203B68DB6D1A687B68C3F8AC217B68D3F835
S31500000F309C31B3F85630002B14BF01230023DAB2DC
S31500000F407B6883F8D0201F4B1B685A1C1D490A601A
S31500000F503A68D26D1C4941F823207B68D3F8A83142
S31500000F60164A1288002A01D1184A00E000229A6324
S31500000F70124B1B881BB20D2B1ADC104B1B889BB225
S31500000F809AB2013292B291B20C4A11801BB2104948
S31500000F907A6841F823203B68DB6D9B681B687A689A
S31500000FA0D2F8AC117A68D2F8A821084611469847BB
S31500000FB0002318460837BD4680BD00BF580CFE1FEB
S31500000FC01F85EB51B40CFE1F780EFE1FC51D0000D9
S31500000FD05C0CFE1F80B483B000AF78607B68002B8A
S31500000FE001D101230EE07B68D3F8C031002B01D17B
S31500000FF0012307E07B68D3F8AC31002B01D1012334
S3150000100000E0002318460C37BD465DF8047B7047A8
S3150000101080B483B000AF78607B68002B01D10123D8
S3150000102004E0054B1A687B681A60002318460C37E3
S31500001030BD465DF8047B70478C22010080B582B006
S3150000104000AF78607B68002B01D1012304E078684B
S31500001050002100F031FF002318460837BD4680BD49
S3150000106080B582B000AF786039607B68002B01D113
S31500001070012318E07B68D3F8B831002B01D1012396
S3150000108011E07B68D3F8B831DB687A68D2F8C02102
S315000010901046396898477B681B8823F008039AB284
S315000010A07B681A80002318460837BD4680BD00BFFE
S315000010B080B483B000AF78600B46FB707B68D3F8D2
S315000010C0AC3100229A637B68D3F89C31FA7883F8B6
S315000010D040207B68D3F89C315A6C7B68C3F8D420D7
S315000010E07B681B8823F080039AB27B681A807B6832
S315000010F01B8843F040039AB27B681A800023184687
S315000011000C37BD465DF8047B704700BF80B582B0E2
S3150000111000AF78600B46FB707B68002B01D1012382
S3150000112005E0FB787868194600F0C6FE00231846ED
S315000011300837BD4680BD00BF80B584B000AF78607B
S315000011400B4B5B68DB697A68D2F89C21B2F84A10CF
S3150000115007F10F02084611469847FB7B002B0CBF90
S3150000116001230023DBB218461037BD4680BD00BF01
S31500001170D829010080B582B000AF78600B46FB70BD
S315000011807B68002B01D1012355E0FB78002B3CD076
S315000011907B68D3F8A4315B687A68D2F8AC117A68B8
S315000011A0D2F8BC2152680846114698477868FFF77E
S315000011B0C3FF0346002B0AD0214B5B681B6A7A6883
S315000011C0D2F89C21B2F848201046002198477B6847
S315000011D000229A831A4B5B681B6A7A68D2F89C21B4
S315000011E0B2F848201046012198477B681A8841F6D4
S315000011F0FF1313409AB27B681A807B681B8843F002
S3150000120004039AB27B681A8014E07B681B8823F07B
S3150000121006039AB27B681A80094B5B681B6A7A6878
S31500001220D2F89C21B2F848201046002198477868E9
S3150000123000F058F8002318460837BD4680BD00BFA9
S31500001240D829010080B483B000AF78607B681B8822
S3150000125003F00203002B37D17B68002283F8242099
S315000012607B680022A3F898217B685A687B689A639A
S315000012707B685A687B681A677B68D3F8AC310022B2
S315000012809A657B68D3F8AC3100225A657B680022E8
S315000012905A617B68D3F8AC317A68D2F8AC21B2F8DF
S315000012A08820A3F88C207B68D3F8AC317A68D2F812
S315000012B0AC21B2F88A20A3F88E207B681B8843F005
S315000012C003039AB27B681A807B681A8841F6FF137B
S315000012D013409AB27B681A800C37BD465DF8047BD2
S315000012E0704700BF80B483B000AF78607B6800228F
S315000012F083F824207B680022A3F898217B680022CB
S315000013001A617B6800225A617B6800229A617B68B9
S31500001310D3F8AC317A68B2F8BC20A3F840207B68D9
S31500001320D3F8AC310022A3F842207B681B8843F037
S3150000133001039AB27B681A807B681B8823F4817349
S315000013409AB27B681A807B6893F85230052B06D1D7
S315000013507B68D3F89C311A787B6883F852200C3767
S31500001360BD465DF8047B704780B582B000AF7860FB
S315000013700B46FB707B68002B01D1012324E07B68C0
S315000013801B8803F00403002B03D178680121FFF7C3
S31500001390F1FEFB78002B13D07B68D3F8AC311B78B9
S315000013A0032B10D07B68D3F8AC311B78042B0AD002
S315000013B07868FFF747FF7868012100F07DFD02E0BD
S315000013C07868FFF78FFF002318460837BD4680BDB3
S315000013D080B582B000AF78607B6893F82430002B2C
S315000013E000D14BE07B68B3F89831072B00D945E074
S315000013F07B6893F88A30002B02D0052B0DD03DE098
S315000014007B68D3F890217B68D3F88C3178681146D5
S315000014101A46002300F090FF0CE07B68D3F8902179
S315000014207B68D3F88C31786811461A46012300F0A0
S3150000143083FF00BF7B68D3F88C217B68C3F89021BB
S315000014407B68D3F88C3103F114027B68C3F88C21D6
S315000014507B68D3F88C217B6803F5C6739A4205D165
S315000014607B6803F1EC027B68C3F88C217B68B3F8D8
S31500001470983101339AB27B68A3F898210837BD46A4
S3150000148080BD00BF80B485B000AF786039603B682E
S31500001490B3F5004F03DB47F6FF733B6005E03B689F
S315000014A013F5004F01DC484B3B607B681B693A68CB
S315000014B0D21A7B689A617B683A681A617B685A69B6
S315000014C03B681A447B685A617B685A697B68D3F823
S315000014D0B4309A4205DD7B68D3F8B4207B685A6144
S315000014E00DE07B685A697B68D3F8B4305B429A4258
S315000014F005DA7B68D3F8B4305A427B685A617B6858
S315000015005B697A68B2F8AE2012B202FB03F31B12D3
S31500001510FB607B689B697A68B2F8B02012B202FB66
S3150000152003F3FA681344FB607B68B3F8AC301BB274
S315000015303A6802FB03F3FA681344FB607B68B3F86E
S31500001540B8301BB27A68526F121202FB03F31B12F9
S31500001550FA681344FB607B68B3F8BA301BB27A684A
S31500001560926F121202FB03F31B12FA681344FB601C
S315000015707B68B3F8BC301BB2FA681344FB607B6827
S31500001580B3F8CA301AB2FB689A4205DA7B68B3F838
S31500001590CA301BB2FB600DE07B68B3F8CA301BB2E1
S315000015A05A42FB689A4205DD7B68B3F8CA301BB223
S315000015B05B42FB60FB689BB21BB218461437BD4604
S315000015C05DF8047B704700BF0180FFFF90B583B0D4
S315000015D000AF78607B68B3F8CE309BB29BB2013B1C
S315000015E09BB29AB27B68A3F8CE207B68B3F8CE3064
S315000015F01BB2002B00DD84E07B68B3F8CC207B684F
S31500001600A3F8CE207B685A687B689B68D21A7B68F1
S31500001610DA607B685A687B689A607B6893F8243046
S31500001620002B4DD07B68B3F89831002B43D07B68F4
S31500001630D3F894311A7C7B6883F824207B68D3F82E
S3150000164094311A687B681A677B68D3F894315A68B4
S315000016507B685A677B68D3F894319A687B689A6787
S315000016607B68D3F8943103F114027B68C3F89421A4
S315000016707B68D3F894217B6803F5C6739A4205D13B
S315000016807B6803F1EC027B68C3F894217B68B3F8AE
S315000016909831013B9AB27B68A3F898217B6893F84E
S315000016A02430002B0CD17B681B8843F001039AB2CF
S315000016B07B681A8004E07B689B6A5A1C7B689A6286
S315000016C07B681B8803F00203002B11D07B68D3F8DC
S315000016D0AC417B681A6F7B68D3F8C0311B69D31A9B
S315000016E078681946FFF7CEFE0346A4F8403008E0B6
S315000016F07B6800221A617B68D3F8C0311A697B685F
S315000017001A670C37BD4690BD80B584B000AF7860CF
S315000017100023FB817B68B3F8DA207B68A3F8DC2022
S315000017202E4B5B68DB697A68D2F89C21B2F84C10C4
S3150000173007F10D02084611469847284B5B68DB699E
S315000017407A68D2F89C21B2F84E1007F10C020846CE
S3150000175011469847214B5B68DB697A68D2F89C2171
S31500001760B2F8501007F10B020846114698477B7BEA
S31500001770012B05D17B68B3F8E420FB891343FB8179
S315000017803B7B012B05D17B68B3F8E620FB8913432D
S31500001790FB81FB7A012B05D17B68B3F8E820FB8936
S315000017A01343FB817B68FA89A3F8DA207B68B3F8D8
S315000017B0DC207B68B3F8DA309A4204D07B685A683A
S315000017C07B68C3F8E0207B68D3F8AC317A68B2F85E
S315000017D0DA201A811037BD4680BD00BFD829010026
S315000017E080B582B000AF78607868FFF7A5FC034645
S315000017F0002B28D07B681B8803F40053002B22D1D2
S315000018007B689B8B9BB201339BB29AB27B689A83AF
S315000018107B689B8B1BB2042B14DD7868FFF762FD97
S315000018207B681B8843F400539AB27B681A807B68F6
S315000018301B8823F004039AB27B681A807B68002217
S315000018409A8303E002E07B6800229A837B681A8809
S315000018507B685A800837BD4680BD00BF2DE9B0437E
S3150000186084B000AF78607B68D3F89C3193F8403041
S31500001870002B00F0DE80012B00D032E17B6893F86C
S31500001880D830002B00F0D4800023FB607B68B3F8CF
S31500001890DC207B68B3F8DA309A4209D07B68B3F86B
S315000018A0DA30002B04D07B68B3F8DA30072B00D18E
S315000018B017E17B68B3F8DC30013B052B00F21081A1
S315000018C001A252F823F000BF71190000E1180000D0
S315000018D097190000291900004D190000051900008C
S315000018E07B68B3F8DA30062B02D13C23FB6008E0B4
S315000018F07B68B3F8DA30032B02D10023FB6000E0EB
S31500001900EFE05BE07B68B3F8DA30042B02D1782392
S31500001910FB6008E07B68B3F8DA30022B02D13C2387
S31500001920FB6000E0DDE049E07B68B3F8DA30052BC8
S3150000193002D1B423FB6008E07B68B3F8DA30062BEB
S3150000194002D17823FB6000E0CBE037E07B68B3F898
S31500001950DA30012B02D1F023FB6008E07B68B3F894
S31500001960DA30042B02D1B423FB6000E0B9E025E0B5
S315000019707B68B3F8DA30032B03D14FF49673FB6020
S3150000198008E07B68B3F8DA30052B02D1F023FB6060
S3150000199000E0A6E012E07B68B3F8DA30022B02D151
S315000019A00023FB6009E07B68B3F8DA30012B03D132
S315000019B04FF49673FB6000E093E000BF7B68D3F8BA
S315000019C0AC417B685D68FB681E3B18460EF056FF0F
S315000019D0804689467B68D3F8AC315B6918460EF0C1
S315000019E04DFF02460B46404649460EF0ADFF024605
S315000019F00B46104619464FF000023C4B0FF0CEF84E
S31500001A0002460B46104619460FF0B0F90346EB1A8C
S31500001A1063627B681B8823F040039AB27B681A8056
S31500001A207B681B8843F080039AB27B681A8058E073
S31500001A3057E07B68D3F8D430002B00D151E07B68A7
S31500001A40D3F8D4207B68D3F89C315B6C9A4213D1CF
S31500001A507B68D3F8AC317A68D2F89C21B2F8422080
S31500001A60A3F840207B68D3F8AC3100229A637B68E8
S31500001A70D3F8AC3103221A707B68D3F8D4305A1EDF
S31500001A807B68C3F8D4207B68D3F8D430002B00DD04
S31500001A9027E07B68D3F8AC317A6852685A627B6873
S31500001AA05A687B681A677B681B8823F040039AB2E2
S31500001AB07B681A807B681B8843F080039AB27B6838
S31500001AC01A807B68D3F8AC310022A3F840207B68EB
S31500001AD0D3F8AC317A68D2F8A821127C1A7000E0EB
S31500001AE000BF1037BD46BDE8B08300BF008076401A
S31500001AF080B487B000AF78607B68B3F8C8311BB29A
S31500001B00012B40F08A807B68B3F8D6311BB2072BD5
S31500001B1004DC7B68D3F8E4311B6803E07B68D3F808
S31500001B20E4311B883B617B68B3F8CA311BB2033BC7
S31500001B30072B00F2428101A252F823F05D1B000040
S31500001B40BB1D0000BB1D0000BB1D0000991B000053
S31500001B50171C0000E31B0000FD1B00007B681B88B0
S31500001B6003F00203002B0AD07B681B8803F00103F5
S31500001B70002B10D17B680322A3F8C8214CE07B68B8
S31500001B80D3F8AC31B3F84030002B04D07B68032285
S31500001B90A3F8C82140E03FE07B681B8803F00203FE
S31500001BA0002B0AD07B681B8803F00103002B17D19A
S31500001BB07B680222A3F8C8212EE07B68D3F8AC31FB
S31500001BC0B3F84030002B06D17B68D3F8AC31B3F8BC
S31500001BD04230002B04D07B680222A3F8C8211BE008
S31500001BE01AE07B68B3F8D0311AB23B699A4204DA3C
S31500001BF07B680222A3F8C8210EE00DE07B68B3F8EB
S31500001C00D0311AB23B699A4204DD7B680222A3F8FE
S31500001C10C82101E000E000BFCFE07B68B3F8C8311F
S31500001C201BB2012B40F3C9807B6803F58F53103339
S31500001C301B685A1E7B6803F58F5310331A607B6846
S31500001C4003F58F5310331B689BB21BB2002B00F3B6
S31500001C50B4807B6803F58F530C331B88F4335B0029
S31500001C607A6813440433FB607B68B3F8CC311AB24C
S31500001C707B6803F58F5310331A607B68D3F8DC3129
S31500001C801A88FB681A807B68B3F8D2311BB2072B1F
S31500001C900DDCFB6803F580637A68D2F8DC21528894
S31500001CA01A807B68D3F8DC311B687B6104E07B68B3
S31500001CB0D3F8DC311B887B61FB6803F500637A6827
S31500001CC0D2F8E02112881A80FB6803F540637A682F
S31500001CD0D2F8E42112881A807B68B3F8CE31B3F5C6
S31500001CE0007F07D27B68B3F8CE3101339AB27B68A6
S31500001CF0A3F8CE217B68B3F8C8311BB2022B0AD1F8
S31500001D007B68B3F8CE31B3F5007F3CD37B68002205
S31500001D10A3F8C82137E07B68B3F8CA311BB2033B8E
S31500001D20032B30D801A252F823F000BF3D1D00005E
S31500001D30871D0000531D00006D1D00007B6893F891
S31500001D402430002B04D17B680022A3F8C8211AE0B6
S31500001D5019E07B68B3F8D0311AB27B699A4204DA8B
S31500001D607B680022A3F8C8210DE00CE07B68B3F87D
S31500001D70D0311AB27B699A4204DD7B680022A3F84F
S31500001D80C821FFE700BF7B6803F58F530C331B8820
S31500001D9001339AB27B6803F58F530C331A807B6844
S31500001DA003F58F530C331B88B3F5007F05D37B688F
S31500001DB003F58F530C3300221A801C37BD465DF89D
S31500001DC0047B704780B582B000AF0023FB80374BA1
S31500001DD05B681B6A40F207200121984755E0B7F976
S31500001DE00630334A52F823303B603868FFF7F8FC78
S31500001DF03B68D3F8B8315B683A68D2F8C021104620
S31500001E0098473B68D3F8C0311A693B685A603B680B
S31500001E10D3F8AC313A6852685A603B68D3F8C0319F
S31500001E205B7A83F00103DBB2002B06D03B681B888C
S31500001E3043F008039AB23B681A803B6893F8D8309F
S31500001E40002B02D03868FFF75FFC3868FFF7C0FA4E
S31500001E503868FFF7BBFB3B681B8803F04003002B89
S31500001E6002D03868FFF7FAFC3B68D3F8A4319B68C8
S31500001E703A68D2F8AC21104698473868FFF738FE22
S31500001E80FB889BB201339BB2FB800A4B1B88B7F9D8
S31500001E9006201BB29A42A2DB044B5B681B6A40F227
S31500001EA00720002198470837BD4680BDD829010084
S31500001EB05C0CFE1F580CFE1F80B584B000AF786026
S31500001EC00B46FB707B685B6B002B0BD07B685A6BF9
S31500001ED07B68D3F8C0311B691A447B689A637B68B8
S31500001EE000225A637B6803F154027B68383310463C
S31500001EF019461C220FF084FA7B681B6E002B03D157
S31500001F007B68DA6D7B681A667B68D3F89430B3F524
S31500001F10000F03DB7B68754AC3F894207B6803F1E6
S31500001F20AC027B688C331046194620220FF068FA03
S31500001F307B680222A3F8CC207B68B3F8C830002B5C
S31500001F4005D07B68B3F8C8207B68A3F8CC20FB7863
S31500001F50002B61D17B6893F82430002B36D17B6847
S31500001F6093F852207B6883F88A207B6893F88A303E
S31500001F70002B02D0052B0AD013E07868002100F070
S31500001F8069F903461A467B6883F8242009E07868D5
S31500001F90012100F05FF903461A467B6883F8242086
S31500001FA000BF7B6893F82430002B07D07B681B8822
S31500001FB023F001039AB27B681A8094E07B681B8841
S31500001FC043F001039AB27B681A808CE07B6893F831
S31500001FD05230052B05D07B6893F85230002B40F029
S31500001FE082807B6893F852207B6883F88A207B681E
S31500001FF0B3F888207B681A867B680122A3F89821AB
S315000020007B68D3F894311B7C002B6CD17B68D3F8AA
S31500002010943102221A7466E07B6893F82430002B10
S3150000202006D17B68D3F8C0311A697B685A6556E0D9
S315000020307B68D3F89431DB68FB607B6893F86E307D
S31500002040002B28D07B68002283F86E207B68002254
S3150000205083F852207B68D3F894315B6807EE903A98
S31500002060B8EEE77A7B68D3F894315B6807EE903A6E
S31500002070F8EEE77A27EE277A7B681B6E5B0007EEA1
S31500002080903AF8EEE77AC7EE277AFDEEE77A17EE92
S31500002090903A1B14FB60FB78012B07D1FB685B11A0
S315000020A0FB607B681B6E5A017B681A667B685A6DFB
S315000020B07B68D3F8C0311B699A4208DD7B68D3F888
S315000020C0C0311A69FB681A447B685A6507E07B6869
S315000020D0D3F8C0311A69FB68D21A7B685A657B68E7
S315000020E05A6D7B689A631037BD4680BDFFFF7F003F
S315000020F080B483B000AF786039603B68152B78D820
S3150000210001A252F823F000BF612100006721000000
S315000021106D21000073210000F3210000F32100006F
S31500002120F3210000F3210000772100007D2100004B
S3150000213087210000912100009B210000A5210000BD
S31500002140AF210000B9210000C3210000CD2100000D
S31500002150D1210000DB210000E5210000E92100007B
S315000021607B68043347E07B68743344E07B687833EC
S3150000217041E000233FE07B6810333CE07B68D3F806
S31500002180AC31403337E07B68D3F8AC31A03332E072
S315000021907B68D3F8AC3160332DE07B68D3F8AC3183
S315000021A0623328E07B68D3F8AC315E3323E07B688A
S315000021B0D3F8AC315C331EE07B68D3F8AC3188339E
S315000021C019E07B68D3F8AC318A3314E0002312E0BF
S315000021D07B68D3F8AC3164330DE07B68D3F8AC315F
S315000021E0663308E0074B06E07B68D3F8AC312C3346
S315000021F001E07B68103318460C37BD465DF8047B5A
S31500002200704700BF6C0EFE1F80B584B000AFF8604B
S31500002210B9607A607B68002B16DB7B68032B13DCC6
S31500002220F868B968FFF764FF0146FA687B68763399
S315000022309B0013445960BB6899B2FA687B68E8331F
S315000022405B0013440A465A80002318461037BD46E1
S3150000225080BD00BF80B582B000AF78600B46FB70D2
S315000022607B6803F1EC027B68C3F890217B68D3F8A6
S3150000227090317A68126F1A607B68D3F89031002229
S315000022805A607B68D3F8903100229A607B68D3F855
S3150000229090310022DA607B68D3F8903100221A74FC
S315000022A07B68D3F8903103F114027B68C3F88C2164
S315000022B07B68D3F88C217B68C3F894217B68002265
S315000022C0DA62FB78002B05D07B68B3F86C207B685C
S315000022D01A860DE07B685A6D7B68D3F890311B68CF
S315000022E09A4201DB012201E04FF6FF727B681A86F3
S315000022F07B68D3F890117B68D3F88C21FB787868DB
S3150000230000F01AF87B68D3F88C217B68C3F890211B
S315000023107B68D3F88C3103F114027B68C3F88C21F7
S315000023207B680122A3F898217B68D3F890311B7C47
S3150000233018460837BD4680BD80B489B000AFF86046
S31500002340B9607A60FB70FB78002B1ED0FB68B3F88F
S315000023506C30BB826FF00043FB61FB689B6D002B0A
S3150000236042D1BB685A68FB681B6E9A423CDA7B68AE
S3150000237000225A607B6800229A60BB681A687B68F4
S315000023801A607B6800221A74DEE0FB685A6DBB682F
S315000023901B68D31AFB61FB69002B06DA4FF6FF7345
S315000023A0BB82FB695B42FB6101E00123BB82FB68E8
S315000023B01B6E1B14FB82B7F91630002B01DC0123C0
S315000023C0FB82B7F91620FB699A420DDB7B68002277
S315000023D05A607B6800229A60FB685A6D7B681A60B7
S315000023E07B6800221A74AFE0BB68DA68FB699A4220
S315000023F00CDABB685A68FB689B6D9A4206DCFB6880
S315000024001B8EB7F914201BB29A4236D0BB685A68A5
S31500002410FB681B6ED31ABB61FB681A6EBB699A42D6
S3150000242012DDFB68BA8A1A86FB689A6DFB681B6E1A
S315000024309A4204DAFB689A6D7B685A6007E0FB688B
S315000024401A6E7B685A6002E07B68BA695A60BB689C
S315000024505A68FB689B6D9A4207DDFB689A6DBB69FB
S315000024609A42B8BF1A467B685A60FB681A6E7B6848
S315000024709A607B6802221A7425E0BB685A68FB687A
S315000024809B6D9A4215DABB685A68FB68DB6D13448C
S31500002490BB61FB689A6DBB699A42A8BF1A467B6806
S315000024A05A60FB68DA6D7B689A607B6801221A7451
S315000024B009E0BB685A687B685A607B6800229A60AC
S315000024C07B6803221A747B685B6807EE903AB8EE65
S315000024D0E77A7B685B6807EE903AF8EEE77A27EED4
S315000024E0277AFB681B6E5B0007EE903AF8EEE77AF8
S315000024F0C7EE277AFDEEE77A17EE903A1A147B6854
S31500002500DA60FB68DA6ABB6859687B685B680B440B
S315000025105B101A44FB68DA62FB68DB6A1B14BB615A
S31500002520FB681B8E1BB2002B02DABB695B42BB61E8
S31500002530BB681A68BB691A447B681A60FB68DB6A69
S315000025409AB2FB68DA6200BF2437BD465DF8047BA9
S31500002550704700BF80B483B000AF0346FB7197F9A4
S315000025600730002B0BDB084997F907305B09FA792E
S3150000257002F01F02012000FA02F241F823200C3774
S31500002580BD465DF8047B704700E100E080B483B08F
S3150000259000AF0346FB7197F90730002B10DB0B49A0
S315000025A097F907305B09FA7902F01F02012000FA59
S315000025B002F2203341F82320BFF34F8FBFF36F8F12
S315000025C00C37BD465DF8047B704700BF00E100E0B4
S315000025D080B483B000AF0346FB7197F90730002B38
S315000025E00CDB094997F907305B09FA7902F01F02FB
S315000025F0012000FA02F2603341F823200C37BD4671
S315000026005DF8047B704700BF00E100E080B483B052
S3150000261000AF03463960FB7197F90730002B0ADBE0
S315000026200D4997F907303A68D2B21201D2B20B447B
S3150000263083F800230AE00949FB7903F00F03043B02
S315000026403A68D2B21201D2B20B441A760C37BD46A2
S315000026505DF8047B704700BF00E100E000ED00E09C
S3150000266080B485B000AFEFF30383BB60BB687B60CB
S315000026703B1DFB60FB681B88C3F308039BB2DBB200
S31500002680103BDBB2DBB25BB218461437BD465DF8D1
S31500002690047B704780B483B000AF03463960FB719A
S315000026A0064B1A6897F90730DB001A443B681A6034
S315000026B00C37BD465DF8047B704700BFB4290100A6
S315000026C080B483B000AF78607B689A8A42F00102DA
S315000026D09A820C37BD465DF8047B704780B483B0A0
S315000026E000AF78607B689A8A42F002029A820C37C1
S315000026F0BD465DF8047B704780B483B000AF786058
S315000027007B689A8A22F008029A820C37BD465DF8E9
S31500002710047B704780B483B000AF78600B467B8043
S315000027207B88DBB203F00F03DAB27B6802F00F029C
S3150000273010029A8A22F47062114602460A439A826D
S315000027400C37BD465DF8047B704700BF80B483B08C
S3150000275000AF78600B467B807B88DBB203F00F030B
S31500002760DAB27B6810039A8AC2F30B02114602465C
S315000027700A439A820C37BD465DF8047B704700BF5A
S3150000278080B483B000AF78607B689A8A42F0040216
S315000027909A8200BF7B689B8A9BB29B0803F0010369
S315000027A0DBB2002BF6D10C37BD465DF8047B7047D3
S315000027B080B483B000AF78600B467B807B88DBB249
S315000027C003F00F03DAB27B6802F00F0210019A8A57
S315000027D022F0F002114602460A439A820C37BD46A1
S315000027E05DF8047B704700BF80B483B000AF7860AB
S315000027F00B46FB707B681B78DAB2FB781B01DBB2F9
S315000028001343DAB27B681A700C37BD465DF8047B59
S31500002810704700BF80B483B000AF78607B681A78D9
S3150000282042F040021A707B689A7942F010029A715F
S315000028300C37BD465DF8047B704700BF80B483B09B
S3150000284000AF78607B681A7822F040021A707B68C5
S315000028509A7922F010029A710C37BD465DF8047B16
S31500002860704700BF80B483B000AF78600B46FB7042
S31500002870FB7803F00103DAB27B6802F00102D000B4
S315000028801A7822F00802114602460A431A700C37DB
S31500002890BD465DF8047B704780B483B000AF7860B6
S315000028A00B467B8000BF7B681B79DBB2DB09DBB2A2
S315000028B0002BF8D07B687A88DA8100BF0C37BD46DA
S315000028C05DF8047B704700BF80B483B000AF7860CA
S315000028D07B681B8A9BB218460C37BD465DF8047BA5
S315000028E0704700BF80B483B000AF786039603B6842
S315000028F0022B02D17B680E3302E07B680E33013374
S3150000290018460C37BD465DF8047B704780B483B02B
S3150000291000AF786039603B68012B02D17B680333D6
S3150000292001E07B680E3318460C37BD465DF8047B24
S31500002930704700BF80B483B000AF78600B467B80E1
S3150000294000BF7B681B79DBB2DB09DBB2002BF8D05A
S315000029507B687A88DA8100BF0C37BD465DF8047B58
S31500002960704700BF80B483B000AF786039603B68C1
S31500002970022B02D17B68103302E07B6810330133EF
S3150000298018460C37BD465DF8047B704780B483B0AB
S3150000299000AF786039603B68012B02D17B68053354
S315000029A001E07B68103318460C37BD465DF8047BA2
S315000029B0704700BF80B483B000AF78607B681B8A25
S315000029C09BB2C3F308039BB218460C37BD465DF8AD
S315000029D0047B704780B483B000AF78607B681A7957
S315000029E002F07F021A710C37BD465DF8047B704712
S315000029F080B483B000AF78607B681A7922F0400219
S31500002A001A717B681A7922F001021A710C37BD46D9
S31500002A105DF8047B704700BF80B483B000AF786078
S31500002A207B68DB8A9BB21B0A03F01F03DBB21846E6
S31500002A300C37BD465DF8047B704700BF80B483B099
S31500002A4000AF78607B68DB8A03F01F03DBB21846B1
S31500002A500C37BD465DF8047B704700BF80B483B079
S31500002A6000AF78607B685A7B42F002025A730C37DB
S31500002A70BD465DF8047B704780B483B000AF7860D4
S31500002A800B46FB70FB7803F00103DAB27B68D001DA
S31500002A90DA7902F07F02114602460A43DA710C37F0
S31500002AA0BD465DF8047B704780B483B000AF7860A4
S31500002AB00B46FB70FB785B00DBB243F00403DAB233
S31500002AC07B681A770C37BD465DF8047B704700BFFC
S31500002AD080B582B000AF786039603B681B7E5BB220
S31500002AE01846FFF737FD3B68DB7E5BB213F1210F1B
S31500002AF005D03B68DB7E5BB21846FFF72BFD7B6893
S31500002B009A7842F040029A700837BD4680BD00BFF1
S31500002B1080B584B000AF786039603B689B7E5BB25D
S31500002B20184608F037FF3B689B7E5BB21846FFF7F6
S31500002B304FFD7B689B78FB73FB7B43F00403FB73C1
S31500002B40FB7B03F07F03FB737B68FA7B9A703B6821
S31500002B505B7E5BB21846FFF719FD3B689B7E5BB256
S31500002B601846FFF7F7FC1037BD4680BD80B483B02A
S31500002B7000AF78607B689B78DBB263F05F03DAB204
S31500002B807B689A700C37BD465DF8047B704700BFC2
S31500002B9080B483B000AF78607B689B78DBB203F0CB
S31500002BA07B03DAB27B689A700C37BD465DF8047B0E
S31500002BB0704700BF80B483B000AF78607B689B78B5
S31500002BC0DBB243F05003DAB27B689A700C37BD462D
S31500002BD05DF8047B704700BF80B483B000AF7860B7
S31500002BE07B689B78DBB203F00B03DAB27B689A70E2
S31500002BF00C37BD465DF8047B704700BF80B483B0D8
S31500002C0000AF78607B689B78DBB243F01003DAB2E2
S31500002C107B689A700C37BD465DF8047B704700BF31
S31500002C2080B483B000AF78607B689B78DBB243F0FA
S31500002C302003DAB27B689A700C37BD465DF8047BD8
S31500002C40704700BF80B483B000AF78600B46FB705E
S31500002C5000BF7B681B79DBB2DB09DBB2002BF8D047
S31500002C607B68FA78DA700C37BD465DF8047B7047EE
S31500002C7080B483B000AF78607B685B79DBB21846BE
S31500002C800C37BD465DF8047B704700BF80B483B047
S31500002C9000AF78607B6800221A707B6800229A7009
S31500002CA07B681B79DBB2002B02D07B6800221A718D
S31500002CB07B68F2229A717B68FF225A707B68FF223A
S31500002CC09A747B680022DA717B6800221A727B682C
S31500002CD000225A727B6800229A727B680022DA729E
S31500002CE07B6800221A737B6800225A737B68002275
S31500002CF01A737B684FF478429A827B6800225A8363
S31500002D007B684022DA747B6803221A770C37BD464B
S31500002D105DF8047B704700BF80B483B000AF786075
S31500002D207B689A7822F003029A700C37BD465DF8EC
S31500002D30047B704780B483B000AF78607B689A7874
S31500002D4022F0030242F002029A700C37BD465DF88B
S31500002D50047B704780B483B000AF78607B689B7853
S31500002D6003F00303DBB2002B0CBF01230023DBB20D
S31500002D7018460C37BD465DF8047B704780B483B0B7
S31500002D8000AF78607B68DA7942F01002DA710C37AE
S31500002D90BD465DF8047B704780B485B000AFF8602F
S31500002DA00B467A60FB72FB68FA7A5A707B689B78EE
S31500002DB003F00103DAB2FB6802F001029001DA794E
S31500002DC022F04002114602460A43DA717B68DB783C
S31500002DD003F00103DAB2FB6802F001021001DA79AE
S31500002DE022F01002114602460A43DA717B681B790B
S31500002DF003F00103DAB2FB6802F00102D000DA79CF
S31500002E0022F00802114602460A43DA717B685B79B2
S31500002E1003F00303DAB2FB6802F003001A7822F02B
S31500002E200302114602460A431A701437BD465DF87E
S31500002E30047B704780B483B000AF78607B68FF2264
S31500002E405A707B68DA7922F04002DA717B68DA79A7
S31500002E5022F00802DA717B681A7822F003021A70EF
S31500002E600C37BD465DF8047B704700BF80B485B063
S31500002E7000AF78600B46FB707B689B7803F003031A
S31500002E80DBB2FB73FB78002B01D0012300E00023AB
S31500002E90BB73FA7BBB7B1343FB73FB7B03F0030320
S31500002EA0DAB27B6802F003009A7822F00302114638
S31500002EB002460A439A701437BD465DF8047B704794
S31500002EC080B483B000AF78607B689B7803F003031F
S31500002ED0DBB203F00203DAB27B6802F003009A78F1
S31500002EE022F00302114602460A439A700C37BD4689
S31500002EF05DF8047B704700BF80B483B000AF786094
S31500002F000B46FB70FB78002B01D0012200E000226B
S31500002F107B6802F001025001DA7922F020021146A4
S31500002F2002460A43DA717B6800221A720C37BD46E4
S31500002F305DF8047B704700BF80B483B000AF786053
S31500002F400B46FB70FB7803F00103DAB27B6802F0F4
S31500002F5001029000DA7922F00402114602460A4381
S31500002F60DA710C37BD465DF8047B704780B483B0D8
S31500002F7000AF78600B46FB707B68FA789A740C3762
S31500002F80BD465DF8047B704790B595B002AF78609A
S31500002F90396000237B647B68BB63B86B396800F0DB
S31500002FA07BFB78647B6C002B01D07B6CE6E0002316
S31500002FB0BB623B681B789BB27B85002387F8293070
S31500002FC0142387F8283007F1180300221A60043307
S31500002FD000221A60043300221A60043300221A60A9
S31500002FE00433684BDB6807F1280107F1180208462D
S31500002FF01146984778647B6C002B01D07B6CBDE052
S31500003000BA69BB6B5A62BB6B5B6A7B6307F12803C9
S31500003010184608F05DFD78647B6C002B01D07B6C54
S31500003020ACE0FB8B03F00C039B083B63564A3B6BFF
S3150000303013441A78BB6B5A703B681B6AFB62002309
S3150000304087F8433000237B610023FB63FB6A002B78
S3150000305015D0FB6A1B7887F84330FB6A1B7B002B75
S3150000306008D007F11403FB63BA6BD37843F004036B
S31500003070D37004E0BA6BD3786FF38203D370002366
S31500003080FB740023FB603B68596897F8430007F11F
S31500003090130207F10C04FB6B0093234600F084FE39
S315000030A078647B6C002B07D107F128031846B96BAF
S315000030B03A6800F061FD78647B6C002B0CD13B68AC
S315000030C01A69BB6B9A603B685A69BB6BDA60B86B6E
S315000030D0396800F0A3FB78647B6C002B07D0B86BD3
S315000030E000F090FD07F12803184608F01FFD7B6CE1
S315000030F0002B01D07B6C41E007F12803184608F04D
S31500003100D1FA786BFFF7C2FD786B0121FFF7CCFC93
S31500003110FA7CFC6897F84310FB6B0093786B2346A8
S3150000312000F08AFEB86B396800F052FC3B681A78EA
S31500003130BB6B1A703B68DA69BB6B1A623B689A69AB
S31500003140BB6BDA61BB6B00221A61BB6B00225A6152
S31500003150BB6B00229A70786BFFF7CEFA786BFFF79D
S315000031604DFD786BB96BFFF7B3FCBB6B5B6A18461A
S31500003170FFF756FDBB6B054A5A60002318464C37CD
S31500003180BD4690BDFC230100082301005549435369
S3150000319080B586B000AF78607B687B617B69002B69
S315000031A001D101234EE07B695B68284A934201D036
S315000031B0072347E07B6900225A607B695B6A3B61B3
S315000031C03869FFF709FD7B691B7E5BB21846FFF77E
S315000031D0DDF97B69DB7E5BB213F1210F05D07B69DC
S315000031E0DB7E5BB21846FFF7D1F97B695B7E5BB28B
S315000031F01846FFF7CBF97B699B7E5BB21846FFF753
S31500003200C5F93869FFF75CFE786900F0FBFC7B695D
S315000032100022DA617B6900229A620023FB607B69E7
S315000032201B789BB2FB8100237B7314233B7307F14E
S315000032300C03184608F028FA07F10C03184608F0A4
S3150000324075FC002318461837BD4680BD55494353C3
S3150000325090B58BB000AFF860B9607A60FB683B62EE
S3150000326000237B62386AB9687A6800F035FA7862BA
S315000032707B6A002B01D07B6A42E03B6ADB78C3F3B2
S315000032800103DBB2FB613B6A9B68002B37D0FB690D
S31500003290013B1A467B68D340BB6100233B61002398
S315000032A07B613B6A9B689B689B693A6A9268116876
S315000032B007F110020846114698473A69BB699A42D7
S315000032C001D201231CE03B6A9B78002B01D0082326
S315000032D016E03B6A01229A703B6A9B689B685C68B1
S315000032E03B6A9B681A68BB699BB210460021BA68A4
S315000032F0A04778627B6A002B01D07B6A00E07B6A7C
S3150000330018462C37BD4690BD90B58FB000AFF8601B
S31500003310B9607A60FB68BB6200237B62B86AB968F1
S315000033207A6800F0D9F978627B6A002B01D07B6A53
S315000033308AE0BB6A1B69002B01D0082384E0BB6AC4
S315000033405B6A3B62BB6ADB78C3F30103DBB2FB61FA
S31500003350386AFFF71DFCBB6ABA681A61BB6A7A68ED
S315000033605A61BB6ADB68002B51D0BB6A00225A61E6
S31500003370FB69013B1A467B68D3407B6300237B6174
S315000033800023BB61BB6ADB689B689B69BA6AD2682B
S31500003390116807F114020846114698477A697B6B53
S315000033A09A4201D201234FE0BB683B63002387F8B2
S315000033B02F30BB6A5B78002B0FD1BB6AFA695A6162
S315000033C0BA68FB6913443B637B6B013B7B637B6B96
S315000033D0002B02D1012387F82F3097F82F3083F086
S315000033E00103DBB2002B12D0BB6ADB689B685C680A
S315000033F0BB6ADB681A687B6B9BB21046396B00228E
S31500003400A04778627B6A002B01D07B6A1CE0BB6A0E
S315000034105B7E5BB2184608F0BDFABB6A5B7E5BB2A8
S315000034201846FFF7D5F8BB6A5B7E5BB21846FFF716
S3150000343091F8386AFFF79AFBBB6A5B78002B02D1DA
S31500003440B86A00F037FD002318463C37BD4690BDEC
S3150000345090B58DB002AF786039607B683B6200231F
S31500003460FB610023FB763B6A002B01D1012348E078
S315000034703B6A5B68254A934201D0072341E03B6AD9
S315000034805B6A7B617869FFF765FC0346002B01D117
S31500003490012336E00023FB740023FB600023BB609E
S315000034A000237B623B6ADB7803F00403DBB2002B6C
S315000034B002D007F108037B62F97E07F1130207F1D8
S315000034C00C047B6A009308463968234600F06CFCBE
S315000034D0F861FB69002B01D0FB6912E07869FFF700
S315000034E07BFB3B6A00221A61FA7CFC68F97E7B6AE8
S315000034F000937869234600F09FFC7869FFF75AFB32
S31500003500FB6918462C37BD4690BD00BF554943534D
S3150000351080B588B000AF786039607B68FB61FB6975
S31500003520002B01D1012358E03B68002B01D1012378
S3150000353053E0FB695B682B4A934201D007234CE0BA
S315000035403B6800225A603B6800221A60FB699B6850
S31500003550002B1AD000237B610023BB61FB699B68AB
S315000035609B689B69FA699268116807F1140208461C
S31500003570114698477B69FA69D278C2F30102D2B242
S3150000358002FB03F23B685A6003E03B684FF0FF32F0
S315000035905A60FB69DB68002B1AD00023FB6000230E
S315000035A03B61FB69DB689B689B69FA69D2681168B5
S315000035B007F10C02084611469847FB68FA69D2786B
S315000035C0C2F30102D2B202FB03F23B681A6003E0C7
S315000035D03B684FF0FF321A60002318462037BD467D
S315000035E080BD00BF5549435380B483B000AF7860B7
S315000035F07B68002B01D101230CE07B6807221A703F
S315000036007B6801225A707B6805229A707B680122CA
S31500003610DA70002318460C37BD465DF8047B704708
S3150000362080B584B000AF78600B46FB707B68BB60EA
S315000036300623FB60BB68002B01D1012325E0BB6894
S315000036405B68144A934201D007231EE0FB78002BE7
S3150000365002D0FB78022B08D1B86800F0F1FCF860C4
S31500003660FB68002B01D0FB680FE0FB78002B02D033
S31500003670FB78012B08D1B86800F034FDF860FB68D0
S31500003680002B01D0FB6800E0FB6818461037BD46EA
S3150000369080BD00BF5549435380B483B000AF786006
S315000036A039607B68002B01D101230CE03B68002BBD
S315000036B001D1012307E07B685B68064A934201D18A
S315000036C0082300E0002318460C37BD465DF8047B4E
S315000036D0704700BF5549435380B485B000AFF860CA
S315000036E0B9607A60FB68002B01D1012326E0BB6834
S315000036F0002B01D1012321E07B68002B01D101239E
S315000037001CE0FB685B68104A934201D0072315E072
S31500003710FB68DB7803F00303DBB2022B0DD1BB6839
S3150000372003F00103002B01D0032307E07B6803F0BD
S315000037300103002B01D0032300E0002318461437B1
S31500003740BD465DF8047B70475549435380B588B044
S3150000375000AFF860B9603B601346FB71BB689B68BD
S31500003760002B01D1012352E0BB681B68002B01D15D
S3150000377001234CE0BB685B68002B01D1012346E0C6
S31500003780BB685B681B68002B01D101233FE0BB6867
S315000037905B681B68FB61FA69D3786FF38713D37094
S315000037A0FA6993786FF345139370FB681B7A022BC3
S315000037B006D1FA69D378012161F30513D37004E0C9
S315000037C0FA69D3786FF30513D3700023BB61002326
S315000037D07B61FB681B789BB2FB8200237B751423FD
S315000037E03B750D4B1B6907F11400F97907F11802B7
S315000037F098473B7E5BB213F1210F01D1012306E00E
S315000038007A8B3B689A803B6800229A71002318469F
S315000038102037BD4680BD00BFFC230100B0B590B087
S3150000382000AF786039607A68D378012161F30103CB
S31500003830D3703B681B7A022B05D17A68D3780221B4
S3150000384061F30103D3703B681B69002B5BD03B68B7
S315000038501B695B6807F120041D460FCD0FC42B685A
S3150000386023603B681A6907F1200338681146022273
S31500003870FFF76CFFF863FB6B002B01D0FB6BA3E03B
S315000038803B681B695B681B68BB637B685B78002BC6
S315000038900ED07B685A6A7B68DB78C3F30103DBB220
S315000038A010461946FFF75EF80246BB6B5A600DE0FC
S315000038B07B685A6A7B68DB78C3F30103DBB2104688
S315000038C01946FFF763F80246BB6B5A60BA6B9378EA
S315000038D0022161F383039370BA6BD3786FF383038A
S315000038E0D3703B681B699B681B683A68126911684C
S315000038F007F12002084611469847F863FB6B002B38
S3150000390001D0FB6B60E03B685B69002B5BD03B68DA
S315000039105B695B6807F10C041D460FCD0FC42B686D
S3150000392023603B685A6907F10C0338681146052283
S31500003930FFF70CFFF863FB6B002B01D0FB6B43E03A
S315000039403B685B695B681B687B637B685B78002B05
S315000039500ED07B685A6A7B68DB78C3F30103DBB25F
S3150000396010461946FEF7BEFF02467B6B9A600DE0D5
S315000039707B685A6A7B68DB78C3F30103DBB21046C7
S315000039801946FEF7C3FF02467B6B9A607A6B937803
S315000039906FF3830393707A6BD378022161F3830309
S315000039A0D3703B685B699B681B683A68526911680B
S315000039B007F10C02084611469847F863FB6B002B8B
S315000039C001D0FB6B00E0002318464037BD46B0BD72
S315000039D080B584B000AF786039607868396800F0E7
S315000039E041F87B685B6AFB603B685B7AF86819465E
S315000039F0FEF7FAFE3B681B7A012B03D1F868FEF747
S31500003A0009FF06E03B681B7A022B02D1F868FEF735
S31500003A1015FF3B689B7AF8681946FEF723FF3B685B
S31500003A20DB7A002B02D0F868FFF718F83B681B6AB0
S31500003A30BB60BB68002B11D0BB689B78F868194641
S31500003A40FFF71AF8BB68DB78F8681946FFF754FAEF
S31500003A50BB685B78F8681946FFF708FA1037BD4669
S31500003A6080BD00BF80B586B000AF786039607B68E6
S31500003A705B6A7B617B685B78002B3AD07869FEF7DE
S31500003A801FFE7869FEF72AFE3B681B69002B04D0EF
S31500003A9078690021FEF73EFE1BE07B685B789BB2EF
S31500003AA0013B7B823B681B6AFB60FB68002B0BD0EB
S31500003AB0FB681B799AB27B8A13407B817B89786984
S31500003AC01946FEF727FE04E07B8A78691946FEF759
S31500003AD021FE7B685B789BB2013B9BB278691946F5
S31500003AE0FEF734FE7869FEF74BFE78690021FEF793
S31500003AF05FFE1837BD4680BD80B588B000AFF86060
S31500003B007B600B46FB721346BB7200237B61194B2D
S31500003B101B69F97A07F11402F8689847F8613B7D4A
S31500003B20FB76BB6AFA7E1A70FB69002B1CD197F9EB
S31500003B301B301846FEF72AFD97F91B30184607F08A
S31500003B4029FFBB7A97F91B2010461946FEF75EFD42
S31500003B5097F91B2007F1100310461946FEF79AFD48
S31500003B603B691B687A681A60FB6918462037BD46B0
S31500003B7080BD00BFFC23010080B588B002AFF860AD
S31500003B80B9607A607B68DA7BBB681B330093F868A0
S31500003B900121BB68FFF7B0FF7B681A7BBB6818334F
S31500003BA00093F8680221BB68FFF7A6FF78617B697E
S31500003BB0002B01D07B6920E07B685A7BBB681933F8
S31500003BC00093F8680521BB68FFF796FF78617B696B
S31500003BD0002B01D07B6910E07B689A7BBB681A33A7
S31500003BE00093F8680421BB68FFF786FF78617B695C
S31500003BF0002B01D07B6900E0002318461837BD462C
S31500003C0080BD00BF80B582B000AF78607B689B68DE
S31500003C10002B0DD07B689B689B68002B08D07B68C7
S31500003C209B689B68DB697A689268126810469847B9
S31500003C307B68DB68002B0DD07B68DB689B68002BFC
S31500003C4008D07B68DB689B68DB697A68D268126893
S31500003C50104698470837BD4680BD00BFB0B58EB048
S31500003C6000AFF860B9607A603B604D4BFB614D4B2D
S31500003C707B6300233B630023BB610023FB6285E07B
S31500003C80FA6A13465B0013445B001A46FB69134449
S31500003C901B881A46BB6803FB02F3BB61FA68BB6963
S31500003CA0B2FBF3F3BB62BB6AB3F5807F6BD867E008
S31500003CB0BB6A013BBB62BB6A0133BA6902FB03F311
S31500003CC07B61FB6818464FF00001364B1A464FEAF7
S31500003CD0E27302FB01F500FB03F42C44A0FB022374
S31500003CE0E1180B4679690C464FEAE4751046194609
S31500003CF022462B460DF0B2F802460B46294BD31A44
S31500003D007B6200233B62BB6C002B16D07A69FB6892
S31500003D101B0AB2FBF3F33B623B6A7F2B00D832E00F
S31500003D20204A7B6A13443A6A02FB03F34FF480721B
S31500003D3093FBF2F31B4A9B1A7B627B6A002B02DA27
S31500003D407B6A5B427B627A6A7B6B9A4211DAFA6A19
S31500003D5013465B0013445B001A46FB691A443B6832
S31500003D601A60BB6ADAB27B681A707B6A7B633B6A4D
S31500003D703B63BB6C002B00D105E0BB6C3A6B1A6051
S31500003D80BB6A002B94D1FB6A0133FB62FB6A0C2BE6
S31500003D907FF676AF7B6B18463837BD46B0BD00BFA1
S31500003DA0B8220100A086010080B58AB002AFB960D2
S31500003DB07A603B600346FB737B68FF221A703B68A0
S31500003DC01B4A1A60FB7B002B2CD1BB68002B01D150
S31500003DD0032328E000233B7507F11403184607F078
S31500003DE0EFFA00233B61134B9B69397D07F1100203
S31500003DF0084611469847F861FB69002B01D003235A
S31500003E0011E03A69BB6A00931046B9687A683B6864
S31500003E10FFF724FFB86142F21072BB69934201DDDD
S31500003E20032300E0002318462037BD4680BD00BFAF
S31500003E30B8220100A824010080B586B000AFF86062
S31500003E407B600B46FB721346BB72FB7A002B22D1BA
S31500003E50F868FEF761FFBB7AF86819467A68FEF7DC
S31500003E609BFF3B6A002B15D03B6A1B687B617B6915
S31500003E70FF2B0AD8F8680121FFF75EF87B69DBB2F1
S31500003E80F8681946FFF772F804E0F8680021FFF7B2
S31500003E9053F80CE00BE0F868FEF7CCFFF868FEF785
S31500003EA049FFFB7A022B02D1F868FEF767FF183745
S31500003EB0BD4680BD80B584B000AF78607B685B6925
S31500003EC0002B00D145E00023FB817B68DB7803F003
S31500003ED00303DBB2022B04D17B681B691B88FB81C1
S31500003EE003E07B681B691B78FB817B685B6ABB60B0
S31500003EF07B685B78002B05D0FB89B8681946FEF70E
S31500003F0019FD12E07B68DB7803F00303DBB2022BBA
S31500003F1005D1FB89B8681946FEF7BEFC05E0FB89AA
S31500003F20DBB2B8681946FEF78DFE7B685B697A6876
S31500003F30D278C2F30102D2B29A1A7B685A617B68C0
S31500003F401B697A68D278C2F30102D2B21A447B683E
S31500003F501A611037BD4680BD80B584B000AF786069
S31500003F6039607B685B6AFB607B685B78002B07D0F7
S31500003F70F868FEF71FFD03461A463B681A6015E00F
S31500003F807B68DB7803F00303DBB2022B07D1F8680A
S31500003F90FEF79AFC03461A463B681A6006E0F86884
S31500003FA0FEF766FE03461A463B681A601037BD46A2
S31500003FB080BD00BF80B588B000AF78607B685B6A63
S31500003FC0FB610023BB617B681B78BB607B681B6A57
S31500003FD07B618023BB817B685B78002B1BD010E064
S31500003FE0F869FEF7E7FC0346BB617B68DB69002BDB
S31500003FF007D0BB693B617B68DB6907F108021046A5
S315000040009847F869FEF71AFD0346002BE8D1F869D0
S31500004010FEF7EEFC11E007F1180378681946FFF782
S315000040209BFF7B68DB69002B07D0BB693B617B6824
S31500004030DB6907F10802104698472037BD4680BD68
S3150000404080B584B000AF78600023FB607B685B6A54
S315000040501846FEF79DFD7B685B7E5BB2184607F04F
S3150000406099FC7B685B7E5BB21846FEF78FFA7B682D
S315000040705B7E5BB21846FEF7ABFA7B689B7E5BB253
S31500004080184607F087FC7B689B7E5BB21846FEF7F6
S315000040907DFA7B689B7E5BB21846FEF799FA7B68D1
S315000040A0DB68002B09D07B68DB689B68DB687A6875
S315000040B0D268126810469847F8607B685B78002BD8
S315000040C004D07B685B6A1846FEF75AFB7B680022C1
S315000040D01A617B6800225A61FB6818461037BD4694
S315000040E080BD00BF80B584B000AF78600023FB6060
S315000040F07B689B68002B0CD07B6800229A707B68DB
S315000041009B689B68DB687A689268126810469847D5
S31500004110F8607B685B78002B04D07B685B6A184686
S31500004120FEF7DCFAFB6818461037BD4680BD00BFB7
S3150000413080B58AB000AFFEF793FA0346184607F03B
S3150000414029FC00233B61FEF78BFA03461A4607F16A
S31500004150100310461946FEF79DFA3B691B681B685B
S315000041603B623B6A002B47D03B6A5B6AFB613B6A5A
S31500004170DB68002B21D13B6A5B78002B03D1386AC0
S31500004180FFF798FE19E0F869FEF746FCB8613B6A4E
S315000041905B781A46BB69D31A7B6100237B6205E014
S315000041A0386AFFF787FE7B6A01337B627A6A7B692E
S315000041B09A42F5DBF869FEF70DFC3B6A5B69002B5A
S315000041C01AD1F869396AFEF7A3FC3B6A00221A6124
S315000041D03B6ADB69002B0FD03B6A1B783B600023F0
S315000041E0BB604FF48073BB803B6A1B6AFB603B6A13
S315000041F0DB693A46104698472837BD4680BD00BF62
S3150000420080B588B000AFFEF72BFA0346184607F0D4
S31500004210C1FB00237B61FEF723FA03461A4607F12A
S31500004220140310461946FEF735FA7B691B681B68AE
S31500004230FB61FB69002B1FD0FB691B78FB76FB69D2
S315000042409B78012B15D1FB6900229A70FB69DB690B
S31500004250002B11D0FB7E7B600023FB60FB691B6A91
S315000042603B6101233B81FB69DB693A1D1046984798
S3150000427002E0F869FFF79EFE2037BD4680BD00BF0D
S3150000428080B588B000AF00233B61FEF7E9F903462D
S315000042901A4607F1100310461946FEF7FBF93B696B
S315000042A01B681B68FB61FB69002B20D0FB691B7830
S315000042B0FB76FB695B6A7B617869FEF769FCFB69E3
S315000042C09B7E5BB21846FEF761F9FB69DB69002B42
S315000042D00DD0FB7E3B600023BB600223BB80FB69E5
S315000042E01B6AFB60FB69DB693A4610469847FEF796
S315000042F0B7F90346184607F04DFB2037BD4680BD8B
S3150000430080B483B000AF78600B467B807B881B0A45
S315000043109BB2DBB25A017B68134418460C37BD4684
S315000043205DF8047B704700BF80B483B000AF78604F
S315000043300B467B807B881B0A9BB2DBB21A017B880B
S31500004340DBB213449A007B68134418460C37BD460B
S315000043505DF8047B704700BF80B485B000AF78601D
S315000043600B46FB701346BB70BB78012B10D17B68E4
S315000043701B78FB73FB78DB43DAB2FB7B1340FB73E2
S31500004380FB7B03F03003FB737B68FA7B1A7010E04B
S31500004390BB78002B0DD17B681B78FB73FA7BFB780F
S315000043A01343FB73FB7B03F03003FB737B68FA7BE1
S315000043B01A701437BD465DF8047B704780B586B029
S315000043C000AFF860B96011461A460B46FB801346EB
S315000043D07B71FB88F868194600F0C0F978617B7933
S315000043E0012B04D17B6943F001037B6103E07B6908
S315000043F023F001037B617A69064B13407B61FB88DE
S31500004400F868B9681A467B6900F0BAF91837BD46EC
S3150000441080BD00BFD5FC011F80B586B000AFF86037
S31500004420084611461A4603467B810B463B811346D6
S31500004430FB80FB6803F108027B8910461946FFF7EB
S315000044405FFF7861FB881A043B891A437B691A600F
S315000044501837BD4680BD00BF80B586B000AF786016
S315000044600B467B807B681A1D7B8810461946FFF732
S3150000447047FF78617B691B683B613B691B0C3B61AD
S315000044803B699BB23B613B69FB81FB891846183748
S31500004490BD4680BD80B586B000AFF86008461146BF
S315000044A01A4603467B810B463B811346FB80FB681D
S315000044B003F108027B8910461946FFF721FF786150
S315000044C07B6904337B61FB881A043B891A437B6949
S315000044D01A601837BD4680BD80B586B000AFF8605B
S315000044E0084611461A4603467B810B463B81134616
S315000044F0FB8000237B61FB6803F108027B89104681
S315000045001946FFF7FDFE38613B6904333B613B69A1
S315000045101B687B6197F82030012B0ED13B897A69A5
S3150000452013437B61FB881B046FEA13436FEA034363
S315000045301A467B6913407B610CE0FB881B047A6991
S3150000454013437B613B896FEA03436FEA13437A693E
S3150000455013407B613B697A691A601837BD4680BD96
S3150000456080B584B000AF78600B467B807B88786826
S31500004570194600F0F3F8F860FB6803F00203002B1D
S3150000458001D0012300E0002318461037BD4680BD48
S3150000459080B586B000AF78600B467B807B681A1DBD
S315000045A07B8810461946FFF7ABFE78617B691B686E
S315000045B03B613B699BB23B613B69FB81FB891846CA
S315000045C01837BD4680BD00BF80B584B000AF7860A7
S315000045D00B467B807A687B8810461946FFF790FE6B
S315000045E0F860FB681B68BB60BB689BB2BB60BB68BE
S315000045F09BB218461037BD4680BD00BF80B586B059
S3150000460000AFF860B96011461A460B46FB801346A8
S315000046107B71FB88F868194600F0A0F878617B7911
S31500004620002B04D17B6923F004037B6103E07B69E3
S3150000463043F004037B617A69064B13407B61FB8878
S31500004640F868B9681A467B6900F09AF81837BD46CB
S3150000465080BD00BFD5FC011F80B584B000AF786077
S315000046600B467B8013463B807A687B88104619464A
S31500004670FFF746FEF860FB681B68BB60BB681B0C57
S315000046801B04BB603B88BA681343BB60FB68BA680F
S315000046901A601037BD4680BD80B487B000AF786021
S315000046A000237B61EFF310833B613B697B61012350
S315000046B0FB60FB6883F310880D4B1B889BB2002BB5
S315000046C005D17B680022DA707B684022DA70084BDD
S315000046D01B889BB201339AB2054B1A807B69BB607B
S315000046E0BB6883F310881C37BD465DF8047B7047B2
S315000046F0940CFE1F80B487B000AF786000237B6106
S31500004700EFF310833B613B697B610123FB60FB6830
S3150000471083F31088104B1B889BB2002B06D00E4BE0
S315000047201B889BB2013B9AB20B4B1A800A4B1B8823
S315000047309BB2002B05D17B680022DA707B68802251
S31500004740DA707B69BB60BB6883F310881C37BD4693
S315000047505DF8047B704700BF940CFE1F80B584B0E3
S3150000476000AF78600B467B807B8878681946FFF738
S31500004770DBFDF860FB681B6818461037BD4680BD38
S3150000478080B588B000AFF860B9603B601346FB8027
S31500004790FB88F8681946FFF7C7FDF861B868FFF7A8
S315000047A07BFFFB691B68BB613B6803F48033002B0E
S315000047B00FD0BB697B617B6923F480337B61FB6926
S315000047C07A691A603B6823F480337B61FB697A69F6
S315000047D01A60FB693A681A60B868FFF78BFF2037E2
S315000047E0BD4680BD80B588B000AF78607B68002B81
S315000047F001D101234EE07B685B68002B01D10123C8
S3150000480048E00023FB6107F10C0300221A60043321
S3150000481000221A60043300221A60043300221A6050
S3150000482004330023FB8300237B7709233B771B4B51
S31500004830DB6807F11C0107F10C0208461146984790
S31500004840FB68174A1360BB69164A13603B8A1A460F
S31500004850154B1A600A233B77104BDB6807F11C01E6
S3150000486007F10C02084611469847FB680F4A136089
S3150000487001237B77094BDB6807F11C0107F10C026A
S31500004880084611469847FB68094A1360786800F0A5
S3150000489011F8034618462037BD4680BDFC230100AB
S315000048A0040CFE1F100CFE1F140CFE1F080CFE1F2E
S315000048B00C0CFE1F90B585B000AF78607B68002BAE
S315000048C001D1012329E07B685B68002B01D101231C
S315000048D023E0786800F00AFB7B68BB600023FB815D
S315000048E015E0104B1868104B1968BB685A68FB89AD
S315000048F0DB0013449C88BB685A68FB89DB001344C1
S315000049001B682246FFF73CFFFB890133FB81BB682E
S315000049101B88FA899A42E4D3002318461437BD4609
S3150000492090BD00BF080CFE1F0C0CFE1F80B588B0A2
S3150000493000AF03463960FB800023FB61FB88184605
S3150000494000F08CFAF861FB69002B01D0FB6919E0D5
S31500004950FB883B823B68FB600123BB8207F10C03AB
S31500004960BB6107F11403184600F0C0FA074B19683B
S31500004970074B1A68FB88084611461A463B68FFF73C
S31500004980FFFE002318462037BD4680BD080CFE1FDB
S315000049900C0CFE1F80B584B000AF03463960FB8067
S315000049A00023FB60FB88184600F058FAF860FB68A5
S315000049B0002B01D0FB6810E03B68002B01D10123DE
S315000049C00BE0084B1A68FB8810461946FFF7C8FD2E
S315000049D003461A463B681A70002318461037BD4630
S315000049E080BD00BF080CFE1F80B584B000AF034633
S315000049F03960FB800023FB60FB88184600F05CFAF8
S31500004A00F860FB68002B01D0FB6810E03B68002BC8
S31500004A1001D101230BE0084B1A68FB8810461946A2
S31500004A20FFF7B6FD03461A463B681A800023184670
S31500004A301037BD4680BD00BF040CFE1F80B584B094
S31500004A4000AF0346FB800B46BB8013467B807B880A
S31500004A50002B01D103231EE00023FB60FB881846D0
S31500004A6000F02AFAF860FB68002B01D0FB6812E020
S31500004A70BA887B8813407B81BB88DB439AB27B88EC
S31500004A8013409BB23B81064B1868F9887A893B89AB
S31500004A90FFF7C2FC002318461037BD4680BD00BF95
S31500004AA0040CFE1F80B584B000AF03460A46FB80A7
S31500004AB013467B717B79012B01D9032314E0002374
S31500004AC0FB60FB88184600F0C9F9F860FB68002B0C
S31500004AD001D0FB6808E0064B1868064B1968FA888F
S31500004AE07B79FFF76BFC002318461037BD4680BD67
S31500004AF0080CFE1F0C0CFE1F80B586B000AF0346E7
S31500004B00FB800B46BB8013467B807B88002B01D144
S31500004B10032335E000237B61FB88184600F0CCF9BF
S31500004B2078617B69002B01D07B6929E0164B1A68F6
S31500004B30FB8810461946FFF747FD03467B82BA8875
S31500004B407B8813403B82BB88DB439AB27B88134049
S31500004B509BB2FB817B8ABB81BA893B8A1343BB81AB
S31500004B60FB89DB439AB2BB891340BB81064B1968AC
S31500004B70FA88BB89084611461A46FFF76DFD0023E1
S31500004B8018461837BD4680BD040CFE1F80B584B09C
S31500004B9000AF03460A46FB8013467B717B79002BE8
S31500004BA004D07B79012B01D0032314E00023FB60A2
S31500004BB0FB88184600F052F9F860FB68002B01D01C
S31500004BC0FB6808E0064B1868064B1968FA887B797B
S31500004BD0FFF714FD002318461037BD4680BD00BF01
S31500004BE0080CFE1F0C0CFE1F80B584B000AF0346F8
S31500004BF03960FB800023FB60FB88184600F05CF9F7
S31500004C00F860FB68002B01D0FB6810E03B68002BC6
S31500004C1001D101230BE0084B1A68FB8810461946A0
S31500004C20FFF71AFC03461A463B681A80002318460B
S31500004C301037BD4680BD00BF040CFE1F80B586B090
S31500004C4000AF03463960FB8000237B61FB88184672
S31500004C5000F004F978617B69002B01D07B692AE0BA
S31500004C603B68002B01D1012325E0FB887B827B8AF0
S31500004C7023F0FF037B827B8A3B82114B1A683B8AB7
S31500004C8010461946FFF7E8FB0346FB81FB88DBB2BB
S31500004C90012202FA03F3BB81FA89BB8913409BB256
S31500004CA0BA899A4203D13B6801221A7002E03B6836
S31500004CB000221A70002318461837BD4680BD00BF73
S31500004CC0040CFE1F80B584B000AF0346FB800B4684
S31500004CD0BB8013467B800023FB60FB88184600F0F0
S31500004CE0EBF8F860FB68002B01D0FB6817E07B88C7
S31500004CF0002B01D1032312E0BA887B8813407B8105
S31500004D00BB88DB439AB27B8813409BB23B81064B40
S31500004D101868F9887A893B89FFF7BCFB0023184697
S31500004D201037BD4680BD00BF040CFE1F90B589B08C
S31500004D3002AF03460A46FB8013467B7100233B61A4
S31500004D40FB88184600F08AF838613B69002B01D0D1
S31500004D503B692EE07B79012B04D07B79002B01D0B7
S31500004D60032326E0FB88FB81FB8923F0FF03FB81FD
S31500004D70FB89BB810023FB820023BB827B79012B4D
S31500004D8006D1FB88DBB2012202FA03F3FB8205E0BF
S31500004D90FB88DBB2012202FA03F3BB82074B1868D9
S31500004DA0B989FA8ABC8A7B7900932346FFF794FB7C
S31500004DB0002318461C37BD4690BD00BF040CFE1FDD
S31500004DC080B483B000AF78607B68002B01D10123EB
S31500004DD00CE07B6805221A707B6801225A707B689A
S31500004DE002229A707B680122DA70002318460C377B
S31500004DF0BD465DF8047B704780B584B000AF0346BE
S31500004E000A46FB711346BB7100233B7307F10C0383
S31500004E10184606F0E1FA3B7B03F00103DBB2002BF8
S31500004E2001D1062313E0FB79202B01D903230EE0E1
S31500004E30BB79012B01D9032309E0074B1968FA79DD
S31500004E40BB79084611461A46FFF786FA002318462C
S31500004E501037BD4680BD00BF0C0CFE1F80B487B066
S31500004E6000AF0346FB80FB881B0A9BB27B61FB8875
S31500004E70DBB23B610E4B1B687A699A4211D23B69E1
S31500004E8010331A4601239340FB600A4B1A687B696C
S31500004E909B0013441A68FB681340002B01D00023C3
S31500004EA000E0032318461C37BD465DF8047B7047B7
S31500004EB0140CFE1F100CFE1F80B485B000AF034615
S31500004EC0FB80FB881B0A9BB2FB60074B1B68FA68DA
S31500004ED09A4201D2002300E0032318461437BD4648
S31500004EE05DF8047B704700BF140CFE1F80B588B0C8
S31500004EF000AF78600023FB750023BB750023FB61C0
S31500004F0039E00023BB6130E07B685A68FB69DB004F
S31500004F1013449A882849BB6931F813309A4221D143
S31500004F207B685A68FB69DB0013441B6803F0F8537F
S31500004F303B613B69B3F1807F03D03B69B3F1106FEE
S31500004F4008D1BB69012202FA03F3DAB2FB7D1343EF
S31500004F50FB7507E0BB69012202FA03F3DAB2BB7DF7
S31500004F601343BB75BB690133BB61BB69022BCBD94C
S31500004F70FB690133FB617B681B881A46FB699A4211
S31500004F80BFD8012006F07CFE0C4B93F8BB34FB73B4
S31500004F90FA7BFB7D1343FB73BB7DDB43DAB2FB7B02
S31500004FA01340FB73054AFB7B82F8BB34012006F0F5
S31500004FB019FE2037BD4680BD6823010000E0014090
S31500004FC080B483B000AF78600B46FB70FB787A68DC
S31500004FD09B0013445B689B007A68134418460C37A1
S31500004FE0BD465DF8047B704780B58CB000AF0346C4
S31500004FF0B9607A60FB733E4B18460121FFF7E0FF6C
S3150000500038623B6A9B78FA7B9A4201D300236BE0B5
S315000050103B6A5A687B681A60FB7B1B09DBB202336A
S315000050209B003A6A1344FB61FB7B03F00F03FB62B0
S31500005030FB691B887B857A8DFB6A22FA03F303F0F2
S315000050400103002B01D100234EE0FB699B787B62B4
S31500005050FB6A072B0FD9FB6A03F00703FB627B8D04
S315000050601B0A7B85FB69DB78C3F30303DBB21A46B5
S315000050707B6A13447B621F4AFB6A13441B781A46F9
S315000050807B8D13401C4AD35C1A467B6A13447B62B1
S315000050903B6A9B781B09DBB202339B003A6A1344D6
S315000050A0BB6113497B6A5B00BA6913441B88C3F36F
S315000050B009039BB29B000B447B617B6A5B00BA6968
S315000050C013445B7823F07F03DBB2002B03D1BB686C
S315000050D0FF221A7007E07B691B78C3F34603DBB235
S315000050E01A46BB681A707B6918463037BD4680BDC4
S315000050F05C250100F02301007023010080B487B015
S3150000510000AFF8607A603B600B46FB7200237B6160
S3150000511047E02D4B1A687B69DB0013449A79FB68DC
S315000051201B789A423AD1284B1A687B69DB001344F4
S315000051305B79C3F38503DBB21A46FB685B889A4248
S315000051402CD1214B1A687B69DB001344DB79C3F34E
S315000051500203DBB21A46FB685B789A421ED11A4BF1
S315000051601A687B69DB001344DB79C3F3C403DBB243
S315000051701A46FB7A9A4211D17B69DAB27B681A70B9
S31500005180114B1A687B69DB0013449B88C3F3090340
S315000051909BB21A463B681A8000230EE07B690133F6
S315000051A07B610A4B1B687A699A42B2D37B68DF221D
S315000051B01A703B68FF221A800B2318461C37BD461F
S315000051C05DF8047B704700BFB4290100F80CFE1F90
S315000051D080B582B000AF1B4B184600F0A7F9786087
S315000051E07B68002B00D000BE7B68002B01D07B685B
S315000051F023E0154B00221A60144B1B681B0C9BB254
S31500005200B3F5807F18D1114B1B68184600F06CF976
S3150000521078607B68002B0FD10C4B1B680A4A136021
S3150000522000F0F8F878607B68002B00D000BE7B6841
S31500005230002B01D07B6800E0002318460837BD46E6
S3150000524080BD00BF5C250100180CFE1F9CB17F408D
S3150000525080B584B000AF78607B68002B01D1012354
S3150000526011E00B4BFB600B4B1B68002B02D0094B6C
S315000052701B68FB60F8680021FFF7A2FEB8607B6838
S31500005280BA681A60002318461037BD4680BD00BFB5
S315000052905C250100180CFE1F80B487B000AF786053
S315000052A07B68002B01D1012326E0164B1B68002BDF
S315000052B001D11C2320E0134B1A68124B1B685B6854
S315000052C09B001344BB60BB6804337B617B683B6116
S315000052D00023FB600CE07B691A683B691A603B6936
S315000052E004333B617B6904337B61FB680133FB60FC
S315000052F0FB68032BEFD9002318461C37BD465DF823
S31500005300047B7047180CFE1F90B589B002AF786019
S3150000531039607B68002B01D101233CE03B68002B00
S3150000532001D1012337E064237B61FF23FB74002353
S31500005330BB607B68197807F1130207F1080308467A
S3150000534011461A46FFF750FE0346FB60FB68002B2A
S3150000535002D14FF4AF631EE007F1130207F10C030D
S31500005360786811461A4600F067F978617B69002B68
S3150000537001D07B690FE0B968FA7CFC683B68009352
S315000053807868234600F024FA78617B69002B01D007
S315000053907B6900E0002318461C37BD4690BD00BF60
S315000053A080B586B000AFF8600B467A60FB72FB688A
S315000053B0002B01D1012312E07B68002B01D10123D0
S315000053C00DE07A687B680233F97AF868FFF796FE93
S315000053D078617B69002B01D07B6900E000231846C9
S315000053E01837BD4680BD00BF80B483B000AF78607B
S315000053F07B68002B01D1012304E0054B1A687B680A
S315000054001A60002318460C37BD465DF8047B7047CA
S31500005410F823010080B487B000AF314B1B683B61B5
S315000054203B695B689B003A691344FB602D4A2D4B30
S315000054305B689B001344BB6000237B6146E07B698D
S315000054404FF47E4222FA03F303F00103002B3AD015
S315000054507B69C3F10F037B607B69072B0DD1FA686B
S315000054607B68134410331A79B9687B680B44103390
S315000054701B799A4227D21D232CE07B69082B14D175
S31500005480FA687B68134410331B79372B1BD0BA6834
S315000054907B68134410331A79F9687B680B44103320
S315000054A01B799A420FD01D2314E0BA687B68134417
S315000054B010331A79F9687B680B4410331B799A42CA
S315000054C001D01D2306E07B6901337B617B690F2BCD
S315000054D0B5D9002318461C37BD465DF8047B7047D6
S315000054E09CB17F405C25010080B483B000AF78603A
S315000054F07B681B68002B01D11D230FE07B681B68AE
S31500005500B3F1FF3F01D11D2308E07B6824331B68FC
S31500005510054A934201D01D2300E0002318460C37AC
S31500005520BD465DF8047B70475237465380B485B05C
S3150000553000AF78600023FB607B681B68002B01D1FD
S315000055401D2316E00023BB600AE0BB689B007A6857
S3150000555013441B68FA681344FB60BB680133BB60E5
S31500005560BB68FF2BF1D9FB68002B01D01D2300E09F
S31500005570002318461437BD465DF8047B704700BF0C
S3150000558080B487B000AF78600B46FB7000237B6168
S3150000559000233B610023FB60FB78052B42D801A268
S315000055A052F823F0BD550000C3550000D555000044
S315000055B0F7550000075600000D56000003237B61D7
S315000055C031E07B681B793B613B6903339B080333FE
S315000055D07B6128E07B681B793B617B689B78FB607D
S315000055E03B6903339A083B69F96801FB03F31344EB
S315000055F003337B6117E07B689B78FB60FB689B004D
S3150000560001337B610FE002237B610CE07B689B78B2
S31500005610BB60BB6803339A08BB685B001344013365
S315000056207B6100E000BF7B699B0018461C37BD46C6
S315000056305DF8047B704700BF80B586B000AFF860A8
S31500005640B9607A607B681B687B61FB685B78002BBE
S315000056502CD0BB681B78FF2B02D140F2795329E08E
S31500005660FB685B783B611EE03B69013B3B617B6904
S315000056701B7803F00103DBB2002B02D140F2795311
S3150000568018E0BB681B7878691946FFF779FF024670
S315000056907B6913447B617B691B78C3F34603DBB2EA
S315000056A01A46BB681A703B69002BDDD17B687A69A4
S315000056B01A60002318461837BD4680BD80B485B0F1
S315000056C000AFF8607A603B600B46FB727B68DB7864
S315000056D0C3F30313DBB21A463B685A727B68DB7866
S315000056E0C3F30303DBB21A463B689A727B681B79E5
S315000056F09AB23B689A80FB685A883B689B889A42B4
S3150000570002D340F27A535DE07B689B68FA68528860
S3150000571011467A68D28802FB01F213441A463B68A6
S315000057201A60FB7A012B14D0022B22D07B685B789F
S315000057309AB27B689B789BB21B029BB213439AB2C8
S315000057403B68DA803B6800221A723B680022DA6006
S3150000575030E0FB685B881A467B6813441B7B9AB271
S315000057603B68DA803B6800221A723B680022DA60E6
S3150000577020E0FB685B881A467B6813441B7B9AB261
S315000057803B68DA807B689A783B681A723B689B882C
S3150000579003339B08FA68528811463A68127A02FB6C
S315000057A001F2134402339B007A6813441A1D3B68C6
S315000057B0DA6000BF3B68DB88002B02D140F27A53E7
S315000057C000E0002318461437BD465DF8047B704799
S315000057D080B586B000AFF860B9603B601346FB71D8
S315000057E064237B61FB79032B76D0032B03DC002B30
S315000057F0C0F2998037E0042B3ED0FF2B40F0938017
S315000058003B68DB78C3F30313DBB21A463B6A5A7272
S315000058103B68DB78C3F30303DBB21A463B6A9A7232
S315000058203B6A01229A80FB685A883B6A9B889A42A7
S3150000583002D340F27A537EE03B681B881B021A466D
S31500005840BB6813441A463B6A1A603B689B789AB257
S315000058503B6ADA803B6A00221A723B6A0022DA60EF
